:030000000200FDFE
:0C00FD00787FE4F6D8FD758133020144E1
:1005EE00524D5F5365727665720031323334353653
:1005FE003738003139322E3136382E312E313031F6
:07060E00222C3737373700BB
:1000460012070512071775AF01D2ACD2AF75217A28
:10005600752201752901C2AFE4F508D3E5089403BA
:1000660074809480500D7B78E4FD7F7812041E0521
:100076000880E8D2AF1202FE750DFF750E05750FEA
:10008600F87BFF7A0579EE1203637BFF7A06790126
:100096001204C47FF47E0112002A7F0A1203C412DE
:1000A60006F0120685AF1EEF3395E0FEEF64024EB2
:1000B6007023120594501EE4F51EF509C3E5099454
:1000C6000874809480500E74162509F8E6FF12070E
:1000D60050050980E7AF33EF3395E0FEEF64024E3B
:1000E600700CF533AF321203C4AF321206157F0A15
:0700F6007E0012002A80AE1B
:0806DA00C102013100013300EF
:10070500759850438E1575D7E875D6FFE4F531C257
:020715000222BE
:0300230002047361
:0D047300C0E0C0D075D000C004C005C007B7
:10048000AF99309904C299C20230982DC298E533D1
:10049000FD3395E0FCED64014C700FEFD3940A74CA
:1004A00080948050058F32753302E533FD3395E03B
:0904B0004D7006BF4003753301D5
:0B04B900D007D005D004D0D0D0E03236
:080750002002FDD2028F992264
:10063B008B2E8A2F8930AB2EAA2FA9301206C160C0
:10064B00130530E5307002052F14F91206C1FF12A5
:05065B00075080E222BF
:0A06E200C101011500011E00C10056
:08074700A2009203C200A2030C
:01074F002287
:10071700759A50438E1475D7E875D6FFE4F515C260
:020727000122AD
:0300430002029620
:10029600C0E0C0D075D000C000C006C007E59A30E7
:0C02A600E105539AFDC201E59A30E041E9
:1002B200859B14539AFEAF1EEF3395E0FEEF640167
:1002C2004E70028010E514B44B02D200E514647A39
:1002D200700D751E01AF15051574162FF8A614AF13
:1002E20015EF3395E0FEEF64084E7005751E02F5BA
:0102F20015F6
:0B02F300D007D006D000D0D0D0E03201
:0607390014F91206C1FFD5
:08073F002001FDD2018F9B2275
:100003008B118A128913AB11AA12A9131206C160AC
:0F0013000D0513E5137002051212073980E8225C
:060660008B0D8A0E890FCC
:10066600E4FEEEC39408748094805012AB0D050F1F
:0E067600E50FAA0E7002050E1207390E80E481
:010684002253
:1001890000003E4141413E0000000000217F010086
:1001990000002745454539000000224949493600F4
:1001A90000000C14247F04000000725151514E00CC
:1001B90000003E494949260000004040404F700078
:1001C90000003649494936000000324949493E0094
:1001D900204452020252442000007F49494900004C
:1001E90000007F08087F0000000000FFFF000000FA
:1001F900007F1008047F000000007F48483000009D
:0802090000007F484C73000067
:0306EC00012A00E0
:0F0729007F03EFD394007480948040031F80F30C
:01073800229E
:04041E008F11A9058C
:100422007D037C08C296AF051DEF6044EDF5827531
:10043200830064027002AE01E582640145837002AA
:10044200AE11E58245837002AE03AF041CEF601C5F
:10045200EE30E70AD296120729C296008008D29699
:1004620000C296120729EE25E0FE80DE7C0880B6E7
:010472002267
:10021100EF14602314603714604B14605F24047082
:1002210073E4FAEAC39464748094805067E4FBFD3C
:10023100FF12041E0A80ECE4FAEAC3946474809409
:10024100805051E4FBFD7FC812041E0A80EBE4FAE2
:10025100EAC3946474809480503A7BC8E4FDFF1231
:10026100041E0A80EBE4FAEAC3946474809480501B
:1002710023E4FB7DC8FF12041E0A80EBE4FAEAC303
:10028100946474809480500CE4FB7D647F64120458
:040291001E0A80EAD7
:010295002246
:10056000EF14601114601514601914601D240470D8
:1005700022E4FB800AE4FBFD7FC880147BC8E4FD15
:10058000FF800DE4FB7DC8FF8006E4FB7D647F6493
:0405900012041E2211
:0203C4008F0A9E
:0C03C600E4FAEAC3940874809480504B61
:1003D200E50A75F008A42489F582E43401F583E581
:1003E200822AF582E43583F583E493F50BE4F50C78
:1003F200C3E50C940874809480501DAF0CA807E5E7
:100402000B088002C313D8FC30E004AF298002E459
:08041200FF120560050C80D803
:03041A000A80ABAA
:01041D0022BC
:1006F000E4FAEAC39418748094805008AF29120574
:04070000600A80EE1D
:0107040022D2
:1006A600E4F528FFEFC3940774809480500C7421FE
:0A06B6002FF8E62528F5280F80EA4A
:0106C0002217
:100685007F02EFC3940774809480500974212FF87A
:10069500E4F60F80ED1206A67B007A0079210205AB
:0106A500C193
:100615007523058F247F04EFC3940774809480505D
:100625000974212FF8E4F60F80ED1206A67B007AF7
:060635000079210205C15D
:10059400E4FFFEEEC3940774809480500A74162E10
:1005A400F8E62FFF0E80ECE51DB5070FAF16EF330D
:0C05B40095E0FEEF647A4E7002D322C383
:0105C0002218
:1005130041540D0A0041542B43574D4F44453D313F
:100523000D0A0041542B43574A41503D2200222CCF
:100533002200220D0A002241542B434950535441B7
:1005430052543D22544350222C22000D0A004154A0
:0D0553002B43495053454E443D380D0A00DE
:1002FE00120747400E7BFF7A057913120003120096
:10030E002680EDC2AFE4F50AD3E50A940574809415
:10031E0080500D7B78E4FD7F7812041E050A80E87C
:10032E00D2AF120747400E7BFF7A057918120003F1
:10033E0012002680EDC2AFE4F50AD3E50A940774E5
:10034E00809480500D7B78E4FD7F7812041E050AA0
:04035E0080E8D2AFB2
:010362002278
:060363008B0A8A0B890CD5
:1003690012074740367BFF7A057926120003AB0A4C
:10037900AA0BA90C1200037BFF7A0579311200033D
:10038900AB0DAA0EA90F1200037BFF7A057935126E
:1003990000037FE87E0312002A80C5C2AFE4F5108E
:1003A900D3E510940974809480500D7B78E4FD7F27
:0A03B9007812041E051080E8D2AF90
:0103C3002217
:0604C4008B0A8A0B890C73
:1004CA0012074740247BFF7A057939120003AB0AE9
:1004DA00AA0BA90C1200037BFF7A05794E120003BE
:1004EA007FF47E0112002A80D7C2AFE4F50DD3E56E
:1004FA000D940B74809480500D7B78E4FD7F781204
:08050A00041E050D80E8D2AFCC
:0105120022C6
:1005C1008B0A8A0B890C120747400E7BFF7A05794B
:1005D1005112000312002680ED120747400EAB0AAC
:0D05E100AA0BA90C12066012002680ED2264
:040026007F327E00A7
:0E002A00000075110F75125AD512FDD511FA8E
:0A003800EF1F70011E144E70E92244
:10010900020046E493A3F8E493A34003F68001F2C6
:1001190008DFF48029E493A3F85407240CC8C333F7
:10012900C4540F4420C8834004F456800146F6DFC6
:10013900E4800B01020408102040809006DAE47E76
:10014900019360BCA3FF543F30E509541FFEE493BB
:10015900A360010ECF54C025E060A840B8E493A382
:10016900FAE493A3F8E493A3C8C582C8CAC583CAAD
:10017900F0A3C8C582C8CAC583CADFE9DEE780BE65
:0106EF00000A
:1006C100BB010689828A83E0225002E722BBFE0237
:0906D100E32289828A83E493226A
:00000001FF
