:03000000020046B5
:0C004600787FE4F6D8FD75813C02008D47
:100322001203A91203BB75AF01D2ACD2AFE4F53B05
:10033200D3E53B94647480948050F27B78E4FD7F33
:0803420078120239053B80E846
:0E0026000000751E0F751F5AD51FFDD51EFA5E
:0A003400EF1F70011E144E70E92248
:0503CD00C10001080061
:1003A900759850438E1575D7E875D6FFE4F508C2E0
:0203B900002220
:030023000202F5E1
:1002F500C0E0C0D075D000C000C007309904C299D5
:10030500C20030980FC298AF08050874092FF8A6E7
:0D0315009953080FD007D000D0D0D0E032AF
:0803EE002000FDD2008F9922CE
:10034A008B328A338934AB32AA33A9341200036060
:10035A00130534E5347002053314F9120003FF1251
:05036A0003EE80E22219
:0503D200C10101210042
:1003BB00759A50438E1475D7E875D6FFE4F521C2B4
:0203CB0001220D
:030043000202C2F4
:1002C200C0E0C0D075D000C000C007E59A30E1059B
:1002D200539AFDC201E59A30E010539AFEAF210510
:1002E2002174222FF8A69B53210FD007D000D0D023
:0302F200D0E03227
:0803F6002001FDD2018F9B22C2
:10036F008B358A368937AB35AA36A9371200036029
:10037F00130537E5377002053614F9120003FF1223
:05038F0003F680E222EC
:1000D20000003E4141413E0000000000217F01003E
:1000E20000002745454539000000224949493600AC
:1000F20000000C14247F04000000725151514E0084
:1001020000003E494949260000004040404F70002F
:1001120000003649494936000000324949493E004B
:1001220000003E414162000000007F494949000051
:1001320000007F08087F0000000000FFFF000000B1
:10014200007F1008047F000000007F484830000054
:0801520000007F484C7300001F
:0603D700011904011A00E7
:0F03DE007F03EFD394007480948040031F80F35B
:0103ED0022ED
:040239008F3CA90548
:10023D007D037C08C296AF051DEF6044EDF5827518
:10024D00830064027002AE01E58264014583700291
:10025D00AE3CE58245837002AE03AF041CEF601C1B
:10026D00EE30E70AD2961203DEC296008008D296CF
:10027D0000C2961203DEEE25E0FE80DE7C0880B61D
:01028D00224E
:10015A00EF14602314603714604B14605F2404703A
:10016A0073E4FAEAC39464748094805067E4FBFDF4
:10017A00FF1202390A80ECE4FAEAC39464748094A8
:10018A00805051E4FBFD7FC81202390A80EBE4FA81
:10019A00EAC3946474809480503A7BC8E4FDFF12E9
:1001AA0002390A80EBE4FAEAC394647480948050BA
:1001BA0023E4FB7DC8FF1202390A80EBE4FAEAC3A2
:1001CA00946474809480500CE4FB7D647F64120212
:0401DA00390A80EA74
:0101DE0022FE
:10028E00EF14601114601514601914601D240470AD
:10029E0022E4FB800AE4FBFD7FC880147BC8E4FDEA
:1002AE00FF800DE4FB7DC8FF8006E4FB7D647F6468
:0402BE0012023922CD
:0201DF008F3857
:0C01E100E4FAEAC3940874809480504B48
:1001ED00E53875F008A424D2F582E43400F583E5F2
:1001FD00822AF582E43583F583E493F539E4F53A03
:10020D00C3E53A940874809480501DAF3AA807E571
:10021D0039088002C313D8FC30E004AF198002E422
:08022D00FF12028E053A80D891
:030235000A80AB91
:0102380022A3
:10039400E4FAEAC39418748094805008AF191202E6
:0403A4008E0A80EE4F
:0103A8002232
:10005200020322E493A3F8E493A34003F68001F29F
:1000620008DFF48029E493A3F85407240CC8C333AF
:10007200C4540F4420C8834004F456800146F6DF7E
:10008200E4800B01020408102040809003CDE47E3E
:10009200019360BCA3FF543F30E509541FFEE49373
:1000A200A360010ECF54C025E060A840B8E493A33A
:1000B200FAE493A3F8E493A3C8C582C8CAC583CA65
:1000C200F0A3C8C582C8CAC583CADFE9DEE780BE1D
:0103DD00001F
:10000300BB010689828A83E0225002E722BBFE02FB
:09001300E32289828A83E493222E
:00000001FF
