:030000000200D625
:0C00D600787FE4F6D8FD75814B02011D17
:0C0754001202D77F647E0012002A80F49D
:08069D00C102013D00013F0014
:10071200759850438E1575D7E875D6FFE4F53DC23E
:020722000222B1
:030023000204B222
:0D04B200C0E0C0D075D000C004C005C00778
:1004BF00AF99309904C299C20230982DC298E53F86
:1004CF00FD3395E0FCED64014C700FEFD3940A748B
:1004DF0080948050058F3E753F02E53FFD3395E0D8
:0904EF004D7006BF4003753F018A
:0B04F800D007D005D004D0D0D0E032F7
:080769002002FDD2028F99224B
:100653008B3A8A3B893CAB3AAA3BA93C12006860BF
:1006630013053CE53C7002053B14F9120068FF12C8
:05067300076980E2228E
:0A06A500C101012100012A00C1007B
:08076000A2009203C200A203F3
:01076800226E
:10072400759A50438E1475D7E875D6FFE4F521C247
:020734000122A0
:0300430002026F47
:10026F00C0E0C0D075D000C000C006C007E59A300E
:0C027F00E105539AFDC201E59A30E04110
:10028B00859B39539AFEAF2AEF3395E0FEEF64015D
:10029B004E70028010E539B44B02D200E539647A16
:1002AB00700D752A01AF21052174222FF8A639AFE5
:1002BB0021EF3395E0FEEF64084E7005752A02F5C9
:0102CB002111
:0B02CC00D007D006D000D0D0D0E03228
:0607460014F9120068FF27
:08074C002001FDD2018F9B2268
:100003008B408A418942AB40AA41A94212006860F1
:0F0013000D0542E5427002054112074680E822C2
:060678008B438A44894512
:10067E00E4FEEEC39408748094805012AB4305459B
:0E068E00E545AA44700205441207460E80E4BA
:01069C00223B
:1001620000003E4141413E0000000000217F0100AD
:10017200000027454545390000002249494936001B
:1001820000000C14247F04000000725151514E00F3
:1001920000003E494949260000004040404F70009F
:1001A20000003649494936000000324949493E00BB
:1001B200204452020252442000007F494949000073
:1001C20000007F08087F0000000000FFFF00000021
:1001D200007F1008047F000000007F4848300000C4
:0801E20000007F484C7300008F
:1006AF00010F010110000609993C7EFFE7C3010805
:0106BF00003A
:0F0736007F03EFD394007480948040031F80F3FF
:010745002291
:04045D008F38A90526
:100461007D037C08C296AF051DEF6044EDF58275F2
:10047100830064027002AE01E5826401458370026B
:10048100AE38E58245837002AE03AF041CEF601CF9
:10049100EE30E70AD296120736C296008008D2964D
:1004A10000C296120736EE25E0FE80DE7C0880B69B
:0104B1002228
:1001EA00EF14602314603714604B14605F240470AA
:1001FA0073E4FAEAC39464748094805067E4FBFD64
:10020A00FF12045D0A80ECE4FAEAC39464748094F1
:10021A00805051E4FBFD7FC812045D0A80EBE4FACA
:10022A00EAC3946474809480503A7BC8E4FDFF1258
:10023A00045D0A80EBE4FAEAC39464748094805003
:10024A0023E4FB7DC8FF12045D0A80EBE4FAEAC3EB
:10025A00946474809480500CE4FB7D647F6412047F
:04026A005D0A80EABF
:01026E00226D
:10059F00EF14601114601514601914601D24047099
:1005AF0022E4FB800AE4FBFD7FC880147BC8E4FDD6
:1005BF00FF800DE4FB7DC8FF8006E4FB7D647F6454
:0405CF0012045D2293
:020403008F4622
:0C040500E4FAEAC3940874809480504B21
:10041100E54675F008A42462F582E43401F583E52C
:10042100822AF582E43583F583E493F547E4F548C0
:10043100C3E548940874809480501DAF48A807E52F
:1004410047088002C313D8FC30E004AF0F8002E4F8
:08045100FF12059F054880D849
:030459000A80AB6B
:01045C00227D
:1002D7000508E50875F00612004685F008E4FAEA15
:0C02E700FF7E00C3943074809480504966
:1002F300AD08ED3395E0FCEF2DFFEE3CFE7C007D79
:100303000612008174092DF8E6F536E4F537C3E5E6
:1003130037940874809480501DAF37A807E53608DA
:100323008002C313D8FC30E004AF0F8002E4FF1255
:06033300059F053780D88C
:030339000A80AA8D
:01033C00229E
:1006FD00E4FAEAC39418748094805008AF0F120581
:04070D009F0A80EED1
:0107110022C5
:1006E200E4F51BFFEFC3940774809480500C7414DC
:0A06F2002FF8E6251BF51B0F80EA28
:0106FC0022DB
:1006C1007F02EFC3940774809480500974142FF84B
:1006D100E4F60F80ED1206E27B007A00791402063F
:0106E1000018
:10062D007516058F177F04EFC3940774809480505F
:10063D000974142FF8E4F60F80ED1206E27B007AB0
:06064D0000791402060012
:1005D300E4FFFEEEC3940774809480500A74222EC5
:1005E300F8E62FFF0E80ECE529B5070FAF22EF33B6
:0C05F30095E0FEEF647A4E7002D322C344
:0105FF0022D9
:1005520041540D0A0041542B43574D4F44453D3100
:100562000D0A0041542B43574A41503D2200222C90
:100572002200220D0A002241542B43495053544178
:1005820052543D22544350222C22000D0A00415461
:0D0592002B43495053454E443D380D0A009F
:10033D00120760400E7BFF7A0579521200031200FE
:10034D002680EDC2AFE4F51ED3E51E9405748094AE
:10035D0080500D7B78E4FD7F7812045D051E80E8EA
:10036D00D2AF120760400E7BFF7A0579571200035A
:10037D0012002680EDC2AFE4F51ED3E51E9407747E
:10038D00809480500D7B78E4FD7F7812045D051E0E
:04039D0080E8D2AF73
:0103A1002239
:0603A2008B2B8A2C892D33
:1003A80012076040367BFF7A057965120003AB2B94
:1003B800AA2CA92D1200037BFF7A0579701200037D
:1003C800AB2EAA2FA9301200037BFF7A057974128D
:1003D80000037FE87E0312002A80C5C2AFE4F5312E
:1003E800D3E531940974809480500D7B78E4FD7FC7
:0A03F8007812045D053180E8D2AFF1
:0104020022D7
:060503008B328A338934BB
:1005090012076040247BFF7A057978120003AB3229
:10051900AA33A9341200037BFF7A05798D120003EF
:100529007FF47E0112002A80D7C2AFE4F535D3E506
:1005390035940B74809480500D7B78E4FD7F78129C
:08054900045D053580E8D2AF26
:010551002287
:100600008B498A4A894B120760400E7BFF7A057935
:100610009012000312002680ED120760400EAB49D5
:0D062000AA4AA94B12067812002680ED228E
:040026007F327E00A7
:0E002A00000075360F75375AD537FDD536FAFA
:0A003800EF1F70011E144E70E92244
:1000E200020754E493A3F8E493A34003F68001F2D9
:1000F20008DFF48029E493A3F85407240CC8C3331F
:10010200C4540F4420C8834004F456800146F6DFED
:10011200E4800B010204081020408090069DE47EDA
:10012200019360BCA3FF543F30E509541FFEE493E2
:10013200A360010ECF54C025E060A840B8E493A3A9
:10014200FAE493A3F8E493A3C8C582C8CAC583CAD4
:10015200F0A3C8C582C8CAC583CADFE9DEE780BE8C
:0106C0000039
:10004600C2D530F707B2D563F0FF05F030E70CB242
:10005600D5F4048463F0FF05F080018430D502F402
:02006600042272
:10006800BB010689828A83E0225002E722BBFE0296
:09007800E32289828A83E49322C9
:10008100BC000BBE0029EF8DF084FFADF022E4CC63
:10009100F875F008EF2FFFEE33FEEC33FCEE9DEC2C
:1000A100984005FCEE9DFE0FD5F0E9E4CEFD22ED72
:1000B100F8F5F0EE8420D21CFEADF075F008EF2FBC
:1000C100FFED33FD4007985006D5F0F222C398FDAD
:0500D1000FD5F0EA224A
:00000001FF
